:020000040800F2
:10000000000D0020ED260008C13B0008C33B00089E
:10001000C73B0008CB3B0008CF3B000800000000B6
:10002000000000000000000000000000D33B0008BA
:10003000D53B000800000000D73B0008DB3B000870
:1000400007270008072700080727000807270008D8
:1000500007270008072700080727000807270008C8
:1000600007270008072700080727000807270008B8
:1000700007270008072700080727000807270008A8
:100080000727000807270008072700080727000898
:100090000727000807270008072700080727000888
:1000A00007270008D93B000807270008813500080A
:1000B00029390008072700083539000807270008F4
:1000C0000727000807270008072700080727000858
:1000D000072700080727000807270008693C0008D1
:1000E000072700080727000807270008DFF80CD0BB
:1000F00006F0BCF800480047633B0008000D0020F4
:1001000031490143314A1160704770B50021002325
:100110000F22C47804B32D4C246804F4E064C4F5C1
:10012000E064210AC1F10403CA40447804FA03F1EF
:100130008478144021430901254C0678A1550478A0
:1001400004F01F050124AC4005786D11AD0005F1E8
:10015000E025C5F8004109E0047804F01F050124FA
:10016000AC401C4D0678761145F8264070BD1A4A01
:100170000A400243154B1B1F1A60704739B1134ADE
:10018000121D12680243114B1B1D1A6006E00F4A34
:10019000121D126882430D4B1B1D1A607047042804
:1001A00008D14FF0E021096941F004014FF0E0224D
:1001B000116107E04FF0E021096921F004014FF0DF
:1001C000E0221161704700000000FA050CED00E02C
:1001D00000E400E080E100E080FFFF1F10B504466E
:1001E000CC48844208D10121042000F02DFB0021DD
:1001F000042000F029FB46E0C748844208D10121D1
:10020000082000F021FB0021082000F01DFB3AE04F
:10021000C248844208D10121102000F015FB0021C2
:10022000102000F011FB2EE0BD48844208D10121CE
:10023000202000F009FB0021202000F005FB22E037
:10024000B848844208D10121402000F0FDFA002185
:10025000402000F0F9FA16E0B348844208D10121A9
:10026000802000F0F1FA0021802000F0EDFA0AE091
:10027000AE48844207D10121801500F0E5FA002143
:10028000A01500F0E1FA10BD10B50121084600F0FC
:10029000DBFA0021012000F0D7FA10BD2DE9F04172
:1002A000024600250026002000230024002791F8A4
:1002B00003C00CF00F0591F803C00CF0100CBCF15A
:1002C000000F03D091F802C04CEA050591F800C078
:1002D000BCF1000F31D0146800202BE04FF0010C6E
:1002E0000CFA00F3B1F800C00CEA03069E4220D1DC
:1002F00083004FF00F0C0CFA03F7BC4305FA03FC24
:100300004CEA040491F803C0BCF1280F06D14FF069
:10031000010C0CFA00FCC2F814C00AE091F803C00A
:10032000BCF1480F05D14FF0010C0CFA00FCC2F8EB
:1003300010C0401C0828D1D31460B1F800C0BCF133
:10034000FF0F34DD546800202EE000F1080C4FF060
:10035000010808FA0CF3B1F800C00CEA03069E424B
:1003600021D183004FF00F0C0CFA03F7BC4305FAC0
:1003700003FC4CEA040491F803C0BCF1280F05D13A
:1003800000F1080C08FA0CF8C2F8148091F803C0C8
:10039000BCF1480F07D100F1080C4FF0010808FA32
:1003A0000CF8C2F81080401C0828CED35460BDE879
:1003B000F0814FF6FF710180022181700421C1702C
:1003C00070470246002093680B400BB1012000E00B
:1003D000002070470146886880B2704702460020BE
:1003E000D3680B400BB1012000E0002070470146AC
:1003F000C86880B2704701617047416170470AB1B7
:10040000016100E041617047C16070474FF4803284
:100410000A43826181618261826982697047024612
:100420000020434B18684FF68073184040EA0210D2
:1004300008433F4B186070473E49C8617047F0B5AC
:100440000A46002300240021002500F00046B6F1F2
:10045000004F02D1364EF16901E0354E7168C0F3AC
:10046000034583B200F44016B6F5401F08D121F0D1
:1004700070612F4E766826F070662D4F7E6012E018
:1004800000F48016B6F5801F06D1032606FA05F49F
:10049000A14341F0706106E0460D360103FA06F60D
:1004A000B14341F0706122B1460D360103FA06F600
:1004B000314300F00046B6F1004F02D11C4EF1610D
:1004C00001E01B4E7160F0BD30B500228B071C0FA0
:1004D0000F2303FA04F2164B08338C1053F8243020
:1004E0009343134C08348D1044F8253023468C1068
:1004F00053F824308C07240F00FA04F423430C4CE7
:1005000008348D1044F8253030BD0A49DC310860CC
:100510007047000000080140000C0140001001403D
:100520000014014000180140001C0140002001405F
:100530000000014000002042DF48006840F0010058
:10054000DD49086008464068DC490840DA494860EF
:1005500008460068DA490840D7490860084600683C
:1005600020F4802008600846406820F4FE004860BF
:100570004FF41F0088607047CF49096821F480312B
:10058000CD4A11601146096821F480211160B0F54F
:10059000803F03D0B0F5802F0ED106E0C649096830
:1005A00041F48031C44A116007E0C349096841F44D
:1005B000A021C14A116000E000BF00BF704710B524
:1005C00001460022002300204A11012A02D1BA4C20
:1005D000236806E0022A02D1B74C236A01E0B64C38
:1005E000636A01F01F02012494401C400CB10120F9
:1005F00000E0002010BD38B5002000900024002548
:1006000000BF3120FFF7DBFF05460098401C00903B
:100610000098B0F5A06F01D0002DF2D03120FFF787
:10062000CEFF08B1012400E00024204638BD014679
:100630000020A14A106820F0F80040EAC1001060D4
:100640007047A04908607047024600209A4B5868DE
:1006500020F47C1042EA01031843974B586070471E
:1006600098490866704701460020934A506820F078
:1006700003000843506070478F48406800F00C004A
:100680007047014600208C4A506820F0F000084373
:100690005060704701460020874A506820F4E060AF
:1006A00008435060704701460020834A506820F498
:1006B000605040EAC1005060704729B17E4A527ACA
:1006C00002437D4B5A7204E07B4A527A82437A4B52
:1006D0005A7270477B49D831086070470146002044
:1006E000754A506820F4404008435060704700212C
:1006F000714A20321170704A82F82010012802D00D
:1007000004280AD104E001216B4A2032117005E06F
:100710000521694A2032117000E000BF00BF704718
:100720006949086070476449096A0143624A116275
:100730007047654944390860704730B50021002290
:10074000002400235C4D6D6805F00C0121B10429E3
:1007500005D0082923D105E05C4D056022E05B4D02
:1007600005601FE0544D6D6805F47012524D6D68C0
:1007700005F48034022505EB92421CB9544D5543D3
:1007800005600BE04C4D6D6805F400351DB1504D12
:100790005543056002E04D4D5543056002E04B4D69
:1007A000056000BF00BF444D6D6805F0F001090908
:1007B000484D6B5C0568DD4045603F4D6D6805F454
:1007C000E061090A434D6B5C4568DD4085603A4D48
:1007D0006D6805F46051C90A3E4D6B5C4568DD40AB
:1007E000C560354D6D6805F44041890B3A4D6B5C31
:1007F000C568B5FBF3F5056130BD29B12E4A5269D4
:1008000002432D4B5A6104E02B4A526982432A4B22
:100810005A61704729B1284A92690243264B9A616E
:1008200004E0254A92698243234B9A61704729B1BB
:10083000214AD2690243204BDA6104E01E4AD269A0
:1008400082431D4BDA61704729B11B4AD2680243CB
:10085000194BDA6004E0184AD2688243164BDA601A
:10086000704729B1144A12690243134B1A6104E01C
:10087000114A12698243104B1A617047124940397C
:10088000086070470F49C86470470B49C8717047CA
:100890000948406A40F08070074948627047014645
:1008A0000020054A92680A400AB1012000E00020B9
:1008B0007047014988727047001002400000FFF83D
:1008C000FFFFF6FE000042428004424200127A001E
:1008D00000093D00000000201000002010B5044673
:1008E000FE48844208D10121C014FFF7ADFF00216A
:1008F000E014FFF7A9FFC4E0B4F1804F08D1012153
:100900000846FFF7AEFF00210120FFF7AAFFB8E07D
:10091000F348844208D101210220FFF7A2FF002101
:100920000220FFF79EFFACE0EE48844208D101218F
:100930000420FFF796FF00210420FFF792FFA0E0BC
:10094000E948844208D101210820FFF78AFF0021ED
:100950000820FFF786FF94E0E448844208D1012193
:100960001020FFF77EFF00211020FFF77AFF88E0BC
:10097000DF48844208D101212020FFF772FF0021C7
:100980002020FFF76EFF7CE0DA48844208D1012185
:100990004014FFF759FF00216014FFF755FF70E086
:1009A000D548844209D10121C804FFF74DFF002139
:1009B0004FF40020FFF748FF63E0D048844209D19C
:1009C00001210805FFF740FF00214FF48010FFF7D9
:1009D0003BFF56E0CA48844209D101214805FFF790
:1009E00033FF00214FF40010FFF72EFF49E0C54808
:1009F000844208D101214020FFF733FF002140202D
:100A0000FFF72FFF3DE0C048844208D1012180203C
:100A1000FFF727FF00218020FFF723FF31E0BB48CD
:100A2000844208D101218015FFF71BFF0021A0158A
:100A3000FFF717FF25E0B648844209D101210804D9
:100A4000FFF702FF00214FF48030FFF7FDFE18E0B2
:100A5000B048844209D101214804FFF7F5FE002186
:100A60004FF40030FFF7F0FE0BE0AB48844208D1B2
:100A700001218804FFF7E8FE00214FF48020FFF7F2
:100A8000E3FE10BD00220288944B98420ED0994B91
:100A900098420BD0B0F1804F08D0914B984205D0CE
:100AA000904B984202D0904B984204D14FF68F73EE
:100AB0001A404B881A438D4B984207D08C4B984272
:100AC00004D04FF6FF431A40CB881A4302808B882C
:100AD00083850B880385814B98420BD0854B9842C8
:100AE00008D08B4B984205D08A4B984202D08A4B53
:100AF000984201D10B7A038601238382704770B537
:100B0000002400220023058C4FF6FE763540058434
:100B1000028C8388048B4FF68F752C40B51E2C40B9
:100B20000D882C43751E2A400D892A434D882A437F
:100B30006A4DA8420BD06F4DA84208D0744DA84210
:100B400005D0744DA84202D0734DA84213D14FF680
:100B5000F7752A404D892A434FF6FB752A408D8848
:100B60002A434FF6FF652B404FF6FF552B408D89EA
:100B70002B43CD892B4383800483CD8885860284D3
:100B800070BD70B5002400220023058C4FF6EF766F
:100B900035400584028C8388048B48F6FF752C4011
:100BA0004FF6FF452C400D884FF6FF7606EA0525E7
:100BB0002C434FF6DF752A400D8906EA05152A43B6
:100BC0004D8806EA05152A43444DA84202D0494DF6
:100BD000A8421DD14FF67F752A404D894FF6FF760A
:100BE00006EA05152A434FF6BF752A408D8806EAA6
:100BF00005152A434FF6FF352B404FF2FF752B406A
:100C00008D8906EA85052B43CD8906EA85052B43A8
:100C100083800483CD880587028470BD70B500246D
:100C200000220023058C4FF6FF6635400584028CB8
:100C30008388848B4FF68F752C404FF6FC752C40C3
:100C40000D882C434FF6FF552A400D894FF6FF764D
:100C500006EA05252A434D8806EA05252A431F4D45
:100C6000A84202D0234DA8421DD14FF2FF752A4061
:100C70004D894FF6FF7606EA05252A434FF6FF35E4
:100C80002A408D8806EA05252A434EF6FF752B403B
:100C90004DF6FF752B408D8906EA05152B43CD894E
:100CA00006EA05152B4383808483CD8885870284DB
:100CB00070BD70B5002200230024058C4EF6FF762F
:100CC00035400584038C8488828B48F6FF752A4062
:100CD0004FF6FF452A400D8820E00000002C01401F
:100CE0000004004000080040000C004000100040DC
:100CF0000014004000340140004C0140005001400D
:100D00000054014000180040001C0040002000403A
:100D10000040014000440140004801404FF6FF768A
:100D200006EA05252A434DF6FF752B400D8906EA94
:100D300005352B434D8806EA05352B43FA4DA8426D
:100D400002D0FA4DA84208D14BF6FF752C408D8990
:100D50004FF6FF7606EA85152C4384808283CD8882
:100D6000A0F84050038470BD828B4FF2FF331A40CD
:100D70008283828B4FF6FF7303EA01231A43828337
:100D80007047F0B50C461546002200210026078C5E
:100D90004EF6FF7C07EA0C070784828B018C4FF626
:100DA000FF7707EA043640F6FF473A404FF6FF77F1
:100DB00007EA05273A434FF6FF7707EA03373A4336
:100DC000D94FB8420ED0D94FB8420BD0B0F1804FB6
:100DD00008D0D74FB84205D0D64FB84202D0D64F30
:100DE000B84206D14DF6FF77394046F48057394373
:100DF00005E047F6FF57394044F480573943828372
:100E00000184F0BD828B4FF6F3731A408283828B8C
:100E10000A4382837047F0B50C4615460022002134
:100E20000026078C4FF6FF6C07EA0C070784828BBD
:100E3000018C4FF6FF7707EA04264FF60C773A400D
:100E40004FF6FF7707EA03172F433A43B64FB842EE
:100E50000ED0B64FB8420BD0B0F1804F08D0B44F8F
:100E6000B84205D0B34FB84202D0B34FB84206D112
:100E70004FF6FF57394046F48077394305E04FF28B
:100E8000FF57394044F48077394382830184F0BDB1
:100E9000028B4FF2FF331A400283028B4FF6FF732F
:100EA00003EA01231A4302837047F0B50C46154646
:100EB000002200210026078C4FF6EF7C07EA0C0782
:100EC0000784028B018C4FF6FF7707EA041640F681
:100ED000FF473A404FF6FF7707EA03373A434FF6AA
:100EE000FF7707EA05273A438F4FB8420ED08F4F5E
:100EF000B8420BD0B0F1804F08D08D4FB84205D02A
:100F00008C4FB84202D08C4FB84206D14FF6DF77F3
:100F1000394046F01007394305E04FF65F77394016
:100F200044F01007394302830184F0BD028B4FF671
:100F3000F3731A400283028B0A4302837047F0B5B1
:100F40000C46154600220021068C4FF6FE773E40E7
:100F50000684028B018C4FF60C7632407E1C06EA2A
:100F600003162E433243704EB0420ED06F4EB04245
:100F70000BD0B0F1804F08D06D4EB04205D06D4E11
:100F8000B04202D06C4EB04206D14FF6FD763140F1
:100F900044F00106314305E04FF6F576314044F068
:100FA0000106314302830184F0BD70B505460C464D
:100FB0005D4885420ED05D4885420BD0B5F1804F2B
:100FC00008D05B48854205D05A48854202D05A482D
:100FD000854200D100E000BF208850B92389A28853
:100FE00061882846FFF7ABFFE1882846FFF79EFFA0
:100FF00025E0208804280AD12389A2886188284610
:10100000FFF753FFE1882846FFF742FF17E02088EB
:1010100008280AD12389A28861882846FFF7FBFEA9
:10102000E1882846FFF7EEFE09E02389A28861885F
:101030002846FFF7A6FEE1882846FFF795FE70BD1B
:101040002DE9F04105460C4600260127608808B9C5
:10105000022600E00026A088012801D1022700E036
:1010600001272088A0B92389A28861882846FFF734
:1010700066FFE1882846FFF759FF23893A46314643
:101080002846FFF712FFE1882846FFF701FF13E02B
:101090002389A28861882846FFF707FFE188284650
:1010A000FFF7F6FE23893A4631462846FFF747FF09
:1010B000E1882846FFF73AFFBDE8F0810A884B88AF
:1010C0001A438B881A43CB881A430B891A434B89DE
:1010D0001A438B891A43A0F8442070474FF6FF71DA
:1010E000818000210180C180418001727047002110
:1010F000018041808180C180018141818181C181E4
:101100007047002101804180012181800021C18040
:10111000018170470021018041808180C18001816F
:101120004181818170470000002C01400034014062
:101130000004004000080040000C004021B102887B
:1011400042F00102028004E002884FF6FE731A406A
:101150000280704731B1B0F8442042F40042A0F858
:10116000442005E0B0F84420C2F30E02A0F8442069
:1011700070471AB183890B43838102E083898B43D3
:10118000838170478182704741EA0203A0F84830AA
:1011900070471AB183890B43838102E083898B43B3
:1011A0008381704701894FF6F872114001817047C1
:1011B0000A46002101894FF68F73194011430181BE
:1011C000704730B504460D4629462046FFF7F0FF2C
:1011D000208940F00700208130BD2DE9F041044610
:1011E0000D4616461F46602D06D13B46012231466C
:1011F0002046FFF75AFE05E03B46012231462046D5
:10120000FFF79DFE29462046FFF7D2FF208940F0D8
:1012100007002081BDE8F08130B50C46002101892E
:10122000C9B24FF6FF7505EA032515432543294347
:10123000018130BD2DE9F04105460E46174698461E
:10124000002443463A4631462846FFF7E5FF2C89FD
:101250004FF6F870044044F007044FF68F700440D6
:1012600044F070042C81BDE8F081F0B504460D46D1
:1012700016461F463B46324629462046FFF7CCFF1E
:10128000208940F480402081F0BD01858282704732
:101290000A46002101884FF68F73194011430180DF
:1012A0007047F0B50C4615461E460021002200236B
:1012B0000189028B038C4FF6F877394021434FF6B2
:1012C000FC473A4040F201173A434FF6DD773B4086
:1012D0004FF6FF7707EA06172F433B43018102834E
:1012E0000384F0BD0A460021018B4FF68F7319402D
:1012F0001143018370470A460021018B48F6FF73B2
:1013000019404FF6FF7303EA022319430183704724
:101310000A460021818B4FF68F7319401143818358
:1013200070470A460021818B48F6FF7319404FF63B
:10133000FF7303EA022319438183704721B10288B6
:1013400042F08002028004E002884FF67F731A4068
:101350000280704721B1828842F00402828004E05A
:1013600082884FF6FB731A408280704721B18288D1
:1013700042F00802828004E082884FF6F7731A4038
:101380008280704721B1828842F00102828004E0AD
:1013900082884FF6FE731A40828070470A46002109
:1013A000018B4FF6F77319401143018370470A46CA
:1013B0000021018B4FF2FF7319404FF6FF7303EAD0
:1013C00002231943018370470A460021818B4FF69F
:1013D000F77319401143818370470A460021818BBE
:1013E0004FF2FF7319404FF6FF7303EA02231943CC
:1013F000818370470A460021018B4FF6FB73194029
:101400001143018370470A460021018B4FF6FF33D9
:1014100019404FF6FF7303EA022319430183704713
:101420000A460021818B4FF6FB73194011438183DB
:1014300070470A460021818B4FF6FF3319404FF663
:10144000FF7303EA02231943818370470A46002190
:10145000018B4FF67F7319401143018370470A4691
:101460000021018BC1F30E014FF6FF7303EA022343
:101470001943018370470A460021818B4FF67F7321
:1014800019401143818370470A460021818BC1F3C3
:101490000E014FF6FF7303EA02231943818370475D
:1014A0000A460021018C4FF6FD7319401143018457
:1014B00070470A460021018C4FF6F773194011431B
:1014C000018470470A460021018C4FF6DF731940F2
:1014D0004FF6FF7303EA02131943018470470A466B
:1014E0000021018C4FF67F7319404FF6FF7303EA1A
:1014F00002131943018470470A460021018C4FF6FC
:10150000FF5319404FF6FF7303EA02231943018486
:1015100070470A460021018C4FF2FF7319404FF6C5
:10152000FF7303EA02231943018470470A4600212E
:10153000018C4DF6FF7319404FF6FF7303EA023337
:1015400019430184704730B5002301248C40A3B2B5
:10155000048C9C430484048C02FA01F5ADB22C4344
:10156000048430BD30B5002304248C40A3B2048C25
:101570009C430484048C02FA01F5ADB22C4304842C
:1015800030BD70B5034600200024184618300125F0
:101590008D40ACB21D8CA5431D8409B1082909D129
:1015A00000EB6100056825F07005056005681543CE
:1015B00005600EE00D1FC5F34E052844056825F4AF
:1015C000E045056005684FF6FF7606EA02263543DA
:1015D000056070BD21B1028842F00202028004E081
:1015E00002884FF6FD731A400280704721B10288CD
:1015F00042F00402028004E002884FF6FB731A40B6
:101600000280704721B1828842F08002828004E02B
:1016100082884FF67F731A408280704702884FF6A7
:10162000F7731A40028002880A430280704782885A
:101630004FF68F731A40828082880A4382807047F7
:1016400002894FF6F8731A40028102890A43028127
:10165000704702894FF67F731A40028102890A435C
:101660000281704781847047818570478186704709
:101670000187704781877047A0F840107047028843
:101680004FF6FF431A40028002880A4302807047E7
:101690000146888E70470146088F70470146888F43
:1016A00070470146B1F8400070470146888C70478A
:1016B0000146088D704702460020138A0B400BB18B
:1016C000012000E000207047CA430282704730B515
:1016D0000246002000230024158A05EA01039589AB
:1016E00005EA010413B10CB1012000E0002030BD77
:1016F000CA4302827047000010B50446FB4884428A
:1017000009D101218803FFF79FF800214FF48040A1
:10171000FFF79AF832E0F648844209D101214804E3
:10172000FFF79FF800214FF40030FFF79AF825E00B
:10173000F048844209D101218804FFF792F8002182
:101740004FF48020FFF78DF818E0EB48844209D170
:101750000121C804FFF785F800214FF40020FFF7AE
:1017600080F80BE0E548844208D101210805FFF725
:1017700078F800214FF48010FFF773F810BD2DE9C1
:10178000F04786B005460E460024A24600BFA1469B
:101790000027B08900B100BF2F462C8A4CF6FF709D
:1017A0000440F08804432C82AC894EF6F3100440C8
:1017B000B08831890843718908430443AC81AC8AFD
:1017C0004FF6FF400440B0890443AC8201A8FEF705
:1017D000B4FFC648874202D1DDF810A001E0DDF871
:1017E0000CA0A88900F4004040B10AEBCA0000EB4D
:1017F0000A1031684900B0FBF1F807E00AEBCA00B3
:1018000000EB0A1031688900B0FBF1F86420B8FBE6
:10181000F0F004012009642101FB1089A88900F47B
:10182000004040B1322000EBC900B0FBF1F000F005
:101830000700044308E0322000EB09106421B0FBEC
:10184000F1F000F00F0004432C8106B0BDE8F087F2
:101850004FF41651016000218180C18001810C216B
:10186000418100218181704710B502460020108A15
:101870004FF2FF0318400B884C8823438C88234386
:10188000CC8823431843108210BD00210180418081
:101890008180C180704721B1828942F400528281E7
:1018A00004E082894DF6FF731A4082817047F0B5DB
:1018B0000346002400260025002040F66A17B9429E
:1018C00000D100BF1846C1F3421401F01F060127E2
:1018D00007FA06F5012C01D10C3004E0022C01D1ED
:1018E000103000E014301AB107682F43076002E09F
:1018F0000768AF430760F0BD1AB1838A0B43838248
:1019000002E0838A8B4383827047028A4FF6F0732A
:101910001A400282028A0A430282704782894FF289
:10192000FF731A40828182890A438281704721B104
:10193000828942F00202828104E082894FF6FD73BF
:101940001A4082817047028A4FF6DF731A40028282
:10195000028A0A430282704721B1028A42F480421D
:10196000028204E0028A4BF6FF731A40028270473B
:10197000C1F308028280704701468888C0F30800DE
:101980007047818941F0010181817047028BD2B299
:101990000283028B42EA012202837047028B02F427
:1019A0007F420283028B0A430283704721B1828AFD
:1019B00042F02002828204E0828A4FF6DF731A40EE
:1019C0008282704721B1828A42F01002828204E052
:1019D000828A4FF6EF731A408282704721B1828A61
:1019E00042F00802828204E0828A4FF6F7731A40BE
:1019F0008282704721B1828942F40042828103E0F1
:101A00008289C2F30E028281704721B1828A42F438
:101A10000062828204E0828A4FF2FF731A4082825F
:101A20007047828A4FF6FB731A408282828A0A4389
:101A30008282704721B1828A42F00202828204E0EF
:101A4000828A4FF6FD731A40828270470246002058
:101A5000B1F5007F00D100BF13880B400BB101200E
:101A600000E00020704701F40072B2F5007F00D161
:101A700000BFCA430280704770B5024600240023AD
:101A80000025002040F66A16B14200D100BFC1F324
:101A9000421501F01F03012606FA03F3012D02D1BE
:101AA0009689334006E0022D02D1168A334001E0C8
:101AB000968A33400C12012606FA04F41688344044
:101AC00013B10CB1012000E0002070BD10B5002260
:101AD000002340F66A14A14200D100BF0A1201247B
:101AE0009440A3B2DC43048010BD000000380140E4
:101AF0000044004000480040004C004000500040BE
:101B000010B50446FA48844208D101214015FEF779
:101B10009BFE00216015FEF797FE17E0F548844212
:101B200008D101210015FEF78FFE00212015FEF7D8
:101B30008BFE0BE0F048844208D10121C803FEF778
:101B400083FE00214FF40040FEF77EFE10BD30B54D
:101B50000246002000235068E84C20400D790C68B4
:101B600044EA0524204350609068E54C2040D1E9C8
:101B700002542C434D7944EA450420439060D06AD6
:101B800020F470000C7C641EE4B2234340EA03504E
:101B9000D06230BD00210160017141718160C1607E
:101BA00001210174704721B1826842F00102826014
:101BB00003E0826822F001028260704721B18268EE
:101BC00042F48072826003E0826822F48072826054
:101BD000704710B50023CBB21AB144681C4344606F
:101BE00002E044689C43446010BD816841F00801F4
:101BF00081607047014600208A6802F008020AB13D
:101C0000012000E000207047816841F004018160FC
:101C10007047014600208A6802F004020AB10120E0
:101C200000E00020704721B1826842F4A002826087
:101C300003E0826822F4A00282607047014600201F
:101C40008A6802F480020AB1012000E00020704797
:101C500010B50A4600210023416821F46041531E5B
:101C600041EA4331416010BD21B1426842F4006253
:101C7000426003E0426822F4006242607047F0B5BF
:101C800004460D4600200021092D11DDE068A5F174
:101C90000A0606EB4607072606FA07F18843A5F170
:101CA0000A0606EB460603FA06F10843E0600CE07C
:101CB000206905EB4507072606FA07F1884305EB7F
:101CC000450603FA06F108432061072A0FDA606B24
:101CD000561E06EB86071F2606FA07F18843561E96
:101CE00006EB860605FA06F10843606322E00D2A3A
:101CF0000FDA206BD61F06EB86071F2606FA07F1C0
:101D00008843D61F06EB860605FA06F108432063D2
:101D100010E0E06AA2F10D0606EB86071F2606FA20
:101D200007F18843A2F10D0606EB860605FA06F1D7
:101D30000843E062F0BD21B1826842F48012826003
:101D400003E0826822F48012826070470146C86C0A
:101D500080B2704766484C300068704721B14268D5
:101D600042F48062426003E0426822F48062426092
:101D7000704721B1426842F48052426003E04268F9
:101D800022F48052426070470A460021816821F4A3
:101D9000E04111438160704721B1826842F4004202
:101DA000826003E0826822F400428260704721B1C1
:101DB000826842F40212826003E0826822F4021216
:101DC00082607047014600208A6802F400120AB15E
:101DD000012000E000207047F0B5044615460020C1
:101DE00000220026092911DDE068A1F10A0707EBAE
:101DF000470C072707FA0CF29043A1F10A0707EBFB
:101E0000470703FA07F21043E0600CE0206901EB9A
:101E1000410C072707FA0CF2904301EB410703FA44
:101E200007F210432061A06BC0F30156EF1C06F1CE
:101E3000010CA7EB0C0707EB870C1F2707FA0CF226
:101E40009043EF1C06F1010CA7EB0C0707EB87078B
:101E500001FA07F21043A063F0BD10B50A46002155
:101E60000023816B21F44011531E41EA0351816329
:101E700010BD08B5002300930090009B0B44009315
:101E8000009B1A6008BD08B5024600200090009231
:101E900001F12800009B184400900098006880B26F
:101EA00008BD0A4600214168164B194011434160A4
:101EB00070474162826270470A460021416821F002
:101EC0001F0111434160704740B109490831096859
:101ED00041F40001064A0832116007E00449083164
:101EE000096821F40001024A0832116070470000BD
:101EF0000024014000280140003C0140FFFEF0FFAB
:101F0000FDF7F1FFFFFD3FFF0246002013680B4085
:101F10000BB1012000E000207047CA430260704707
:101F200070B502460020002300240B125568CEB283
:101F300005EA060415681D4015B10CB1012000E04A
:101F4000002070BD00220A12D343036070470000D6
:101F500001460020FE4A106800F038000843106077
:101F60007047FB49096821F00801F94A11601146E0
:101F70000968014311607047F549096821F01001B3
:101F8000F34A116011460968014311607047F14836
:101F9000EF494860F04848607047EE48EC494860B7
:101FA000ED4848607047EA48006940F08000E84921
:101FB00008617047E648006940F08000E449086124
:101FC00070470420E249C96801F0010109B101200C
:101FD0000EE0DF49C96801F0040109B1022007E001
:101FE000DB49C96801F0100109B1032000E00420B9
:101FF000704700B502460423FFF7E3FF034603E002
:10200000FFF7DFFF0346521E012B01D1002AF7D153
:1020100002B90523184600BD30B5044604254FF427
:102020003020FFF7E6FF0546042D17D1C8480069A8
:1020300040F00200C649086108464461006940F06A
:10204000400008614FF43020FFF7D3FF0546C04839
:10205000006941F6FD710840BD490861284630BD60
:1020600010B504244FF43020FFF7C3FF0446042CBE
:1020700016D1B748006940F00400B5490861084628
:10208000006940F0400008614FF43020FFF7B1FFD5
:102090000446AF48006941F6FB710840AC4908614D
:1020A000204610BD00B502460423FFF78AFF034611
:1020B00003E0FFF786FF0346521E012B01D1002AE1
:1020C000F7D102B90523184600BD10B504244FF41A
:1020D0003020FFF7E7FF0446042C16D19C48006926
:1020E00040F004009A4908610846006940F0400049
:1020F00008614FF43020FFF7D5FF0446944800698B
:1021000041F6FB71084092490861204610BD00204D
:102110008F49C96901F0020109B1012000E00020E6
:10212000704730B5A5250424FFF7F1FF00B1002565
:102130004FF43020FFF75DFF0446042C3AD1854868
:1021400083498860844888600846006940F0200020
:1021500008610846006940F0400008614FF43020F3
:10216000FFF747FF0446042C1BD17948006941F66C
:10217000DF710840764908610846006940F01000A8
:10218000086176480580E002FFF733FF0446052C1E
:1021900010D06F48006941F6EF7108406C49086142
:1021A00008E0052C06D06A48006941F6EF71084046
:1021B00067490861204630BD78B506460C460425BF
:1021C00000200090E802FFF714FF0546042D24D1FB
:1021D0005F48006940F001005D4908613480E80211
:1021E000FFF707FF0546042D10D1B01C0090200C0E
:1021F00000990880E802FFF7FCFE05465448006994
:1022000041F6FE7108405249086106E050480069F5
:1022100041F6FE7108404E490861284678BD70B508
:1022200004460D460426F002FFF7E3FE0646042EA0
:1022300011D14748006940F00100454908612580F7
:10224000F002FFF7D6FE06464148006941F6FE71EE
:1022500008403F490861304670BD70B505460E46DE
:102260000424E002FFF7C5FE0446042C17D13948C8
:1022700037498860384888600846006940F0100097
:1022800008612E80E002FFF7B4FE0446052C06D05C
:102290002F48006941F6EF7108402D49086120463A
:1022A00070BD2DE9F04304464FF6FF763746B04641
:1022B000B1460425E443E6B2C4F30727C4F3074854
:1022C0004FEA1469E802FFF794FE0546042D49D150
:1022D00020481F498860204888600846006940F00F
:1022E00010000861FF2E06D01C4808300680E80266
:1022F000FFF77FFE0546042D08D1FF2F06D01748B3
:102300000A300780E802FFF774FE0546042D0AD163
:10231000B8F1FF0F07D011480C30A0F80080E80298
:10232000FFF767FE0546042D0AD1B9F1FF0F07D06C
:102330000A480E30A0F80090E802FFF75AFE054662
:10234000052D0FD00248006941F6EF71084007E003
:102350000020024023016745AB89EFCD00F8FF1F45
:10236000664908612846BDE8F08330B50546042477
:102370004FF43020FFF73DFE0446042C41D1604865
:102380005E4988605F4888600846006940F0200028
:1023900008610846006940F0400008614FF43020B1
:1023A000FFF727FE0446042C22D15448006941F669
:1023B000DF710840514908610846006940F010008B
:1023C00008611DB100205049088002E0A5204E4957
:1023D00008804FF43020FFF70CFE0446052C10D087
:1023E0004648006941F6EF7108404449086108E039
:1023F000052C06D04148006941F6DF7108403F498D
:102400000861204630BDF0B505460E461746042447
:102410003B483A4988603B488860E002FFF7E9FDA5
:102420000446042C19D13548006940F010003349A6
:10243000086147F0F800304328433349891C08807D
:10244000E002FFF7D6FD0446052C06D02B480069B4
:1024500041F6EF710840294908612046F0BD274840
:10246000C069800870472548006A704700202349EA
:10247000096801F0200109B1012000E00020704747
:1024800029B11E4A126902431C4B1A6104E01B4A1F
:1024900012698243194B1A617047014600200129D5
:1024A00008D1164AD26902F001020AB1012008E0FF
:1024B000002006E0114AD2680A400AB1012000E07B
:1024C000002070470D49C860704704200B49C96857
:1024D00001F0010109B101200EE00849C96801F0CD
:1024E000040109B1022007E00449C96801F01001A4
:1024F00009B1032000E004207047000000200240E2
:1025000023016745AB89EFCD00F8FF1F0CB5002014
:10251000019000906C48006840F480306A4908607F
:1025200000BF6948006800F4003000900198401C2A
:102530000190009818B90198B0F5A06FF1D16248E8
:10254000006800F4003010B10120009001E000208C
:1025500000900098012843D15C48006840F01000CA
:102560005A4908600846006820F0030008600846E1
:10257000006840F0020008605348406852494860D3
:102580000846406848600846406840F480604860FB
:102590000846406820F47C1048600846406840F4D3
:1025A000E81048600846006840F08070086000BF8E
:1025B0004548006800F000700028F9D042484068A3
:1025C00020F00300404948600846406840F002009F
:1025D000486000BF3C48406800F00C000828F9D172
:1025E0000CBD10B5FFF792FF10BD10B5364800685E
:1025F00040F001003449086008464068344908400A
:102600003149486008460068324908402E49086050
:102610000846006820F4802008600846406820F4DE
:10262000FE0048604FF41F008860FFF7DAFF4FF0AC
:1026300000602949086010BD10B50021002000226B
:10264000214B5B6803F00C0121B1042906D0082955
:1026500028D107E0214B224C236027E01F4B204C60
:10266000236023E0184B5B6803F47010164B5B6823
:1026700003F48032022303EB904022B9194B434309
:10268000174C23600DE0104B5B6803F4003323B15B
:10269000144B4343124C236003E0104B4343104C54
:1026A000236003E00D4B0E4C236000BF00BF064BC0
:1026B0005B68C3F303130C4CE15C094B1B68CB4014
:1026C000074C236010BD00000010024000200240B3
:1026D0000000FFF8FFFFF6FE08ED00E000127A00B0
:1026E0001400002000093D00180000200648804723
:1026F00006480047FEE7FEE7FEE7FEE7FEE7FEE7E7
:10270000FEE7FEE7FEE7FEE7EB250008ED00000828
:1027100010B501210846FEF77DF801214548FDF777
:102720008EFE10BD08B501210820FEF773F84FF4A6
:102730008050ADF8000010208DF8030003208DF8C4
:10274000020069463C48FDF7A9FD08BD10B53B48AD
:10275000007838B901203949087001033648FDF77F
:102760004AFE07E00020354908704FF48051324896
:10277000FDF743FE10BD324A002105E012F8013B8F
:1027800000F8013B4B1CD9B20C29F7DB704710B5A0
:1027900088B06846FFF7EFFF0C21684601F0AAFAFF
:1027A0000446224627A1684603F0ACFF684600F0C5
:1027B00064FC642001F091FA08B010BD10B5FFF779
:1027C000A7FF00F00FFB00F079FB002000F0AFFB4B
:1027D00000F048FE00F0E6FF00F0ECFF01F049F8E1
:1027E00000F070FD01F0B4F800F066FA142001F07A
:1027F00074FA00F03FF8FFF795FF00F01AFF01F0C0
:102800000AF94FF4FA7001F068FA14A000F035FCF0
:10281000142001F062FA14A000F02FFC012000F057
:1028200086FB142001F059FAFFF7B1FF0EA000F06B
:1028300024FC10BD00023000000C014028000020E4
:10284000E8F7FF1F41542B4E414D454D69616F77AD
:102850004C6162732D253034580D0A0041542B42CF
:10286000415544380D0A000041542B5245534554FC
:102870000D0A00001CB540A103C9CDE900016B465B
:1028800001226B21682000F0C4FD0DF1010301223B
:102890001921682000F0BDFD0DF1020301221A216B
:1028A000682000F0B6FD0DF1030301221B21682012
:1028B00000F0AFFD01AB01221C21682000F0A9FD52
:1028C0001CBD38B504466B4602222146682000F044
:1028D000B3FD9DF801009DF8001000EB012000B24F
:1028E00038BD70B50446002524B93B20FFF7E9FF49
:1028F00005460CE0012C04D13D20FFF7E2FF054620
:1029000005E0022C03D13F20FFF7DBFF05462846F8
:1029100070BD70B50446002524B94320FFF7D1FFF0
:1029200005460CE0012C04D14520FFF7CAFF0546FF
:1029300005E0022C03D14720FFF7C3FF05462846D8
:1029400070BD10B50020FFF7E4FF0D49088002209C
:10295000FFF7DFFF0B4908800020FFF7C2FF0A499D
:1029600008800120FFF7BDFF084908800220FFF71B
:10297000B8FF0749088010BD0007041801000000D7
:102980002A00002030000020320000202C0000200F
:102990002E00002008B501210820FDF73BFF012192
:1029A0001020FDF737FF4FF46040ADF80000102015
:1029B0008DF8030003208DF802006946FE48FDF7FC
:1029C0006DFC4FF40050ADF800006946FB48FDF780
:1029D00065FC08BD70B504460E462EB14FF400519B
:1029E000F648FDF708FD04E04FF40051F348FDF709
:1029F00004FD00251BE04FF40041EF48FDF7FDFC0E
:102A000004F0800028B14FF48041EB48FDF7F3FC5F
:102A100004E04FF48041E848FDF7EFFC4FF400413B
:102A2000E548FDF7E8FC6006040E681CC5B2082DF9
:102A3000E1DB4FF40051E148FDF7DDFC70BD70B5FE
:102A400004460D4605F1B001C8B20021FFF7C2FFF0
:102A5000102141EA14100021FFF7BCFF04F00F0120
:102A600041F001000021FFF7B5FF70BD10B5002156
:102A70008D20FFF7AFFF00211420FFF7ABFF0021EF
:102A8000AF20FFF7A7FF10BD10B500218D20FFF785
:102A9000A1FF00211020FFF79DFF0021AE20FFF7CE
:102AA00099FF10BD70B5002419E004F1B001C8B25F
:102AB0000021FFF78FFF00210846FFF78BFF002161
:102AC0001020FFF787FF002505E001210020FFF718
:102AD00081FF681CC5B2802DF7DB601CC4B2082CD6
:102AE000E3DB70BD2DE9F04106460C4617464FF07A
:102AF00000080025A7F1200000F0FF087F2E02DD6E
:102B00000026A01CC4B2601CC1B23046FFF797FF7C
:102B100000250AE008EB4801A94A02EB4101485DA3
:102B20000121FFF757FF681CC5B2062DF2DBBDE897
:102B3000F0812DE9F04104460F46154600260DE0D0
:102B4000AA5D39462046FFF7CDFFA01DC4B2782C00
:102B500002DD0024B81CC7B2701CC6B2A85D0028F4
:102B6000EED1BDE8F0812DE9F04180460E461546D4
:102B7000002731464046FFF762FF00240AE0914AF1
:102B800002EB8511085D0121FFF724FF781CC7B215
:102B9000601CC4B2102CF2DB701CC1B24046FFF7BF
:102BA0004EFF00240CE06900491C864A02EB4111EB
:102BB000085D0121FFF70EFF781CC7B2601CC4B28C
:102BC000102CF0DBBDE8F0812DE9F05F06460F46E2
:102BD00090461C46DDF828A04FF0000BE11704EBEF
:102BE0005171C910A4EBC10131B92046E11704EBC2
:102BF0005171C1F3C70506E02046E11704EB51719E
:102C0000C910491CCDB23D4615E029463046FFF7B4
:102C100016FFB1460BE059460BF1010B1AF8010003
:102C20000121FFF7D7FE09F1010000F0FF09C145BE
:102C3000F1DB681CC5B2A542E7DBBDE8F09F2DE9DA
:102C4000F05F06460F4690461C46DDF828A04FF080
:102C5000000BE11704EB5171C910A4EBC10131B9AC
:102C60002046E11704EB5171C1F3C70506E0204689
:102C7000E11704EB5171C910491CCDB23D4617E074
:102C800029463046FFF7DBFEB1460DE059460BF111
:102C9000010B1AF80110C943C8B20121FFF79AFECF
:102CA00009F1010000F0FF09C145EFDB681CC5B266
:102CB000A542E5DBBDE8F09F10B5FFF76BFE4FF4D2
:102CC00000513D48FDF799FB642001F006F84FF4F0
:102CD00000513948FDF78FFB0021AE20FFF77AFE47
:102CE00000210846FFF776FE00211020FFF772FE54
:102CF00000214020FFF76EFE00218120FFF76AFED1
:102D00000021CF20FFF766FE0021A120FFF762FE21
:102D10000021C820FFF75EFE0021A620FFF75AFE23
:102D20000021A820FFF756FE00213F20FFF752FEAA
:102D30000021D320FFF74EFE00210846FFF74AFE90
:102D40000021D520FFF746FE00218020FFF742FE3C
:102D50000021D920FFF73EFE0021F120FFF73AFEC7
:102D60000021DA20FFF736FE00211220FFF732FEA5
:102D70000021DB20FFF72EFE00214020FFF72AFE76
:102D800000212020FFF726FE00210220FFF722FE6F
:102D900000218D20FFF71EFE00211420FFF71AFEF0
:102DA0000021A420FFF716FE0021A620FFF712FE47
:102DB0000021AF2008E00000000C0140001001409D
:102DC000DE74000834000020FFF704FE0021AF206D
:102DD000FFF700FEFFF766FE00210846FFF72FFE13
:102DE00010BD000000B587B001214FF40170FDF760
:102DF00011FD4FF40040FDF771FC2020ADF80400F8
:102E000000208DF8070001A92848FDF747FA0020A7
:102E100002908DF80C0001208DF80D004FF4602019
:102E200004900020059005208DF8180002A9204884
:102E3000FEF78DFE0523012219461D48FEF71FFFF0
:102E400001211B48FEF7AFFE1948FEF7CEFE00BF7A
:102E50001748FEF7CFFE0028FAD11548FEF7D4FE3A
:102E600000BF1348FEF7D5FE0028FAD10121104813
:102E7000FEF7D9FE07B000BD2DE9F0470024A146BA
:102E80000B48FEF763FF8146484602F097FF07466E
:102E9000084A094B02F097FE054603F045F8044640
:102EA000204602F0B1FF80B2BDE8F0870008014083
:102EB00000240140C7BAB88D06F0DE3F00B585B0EA
:102EC000012144F20400FDF7A5FC4FF40070ADF8B9
:102ED000100018208DF8130003208DF8120004A9AB
:102EE0006E48FDF7DBF94FF48060ADF81000042068
:102EF0008DF8130004A96948FDF7D0F94FF4E130CB
:102F000000900020ADF80400ADF80600ADF8080010
:102F1000ADF80C000C20ADF80A0069466048FEF7D9
:102F20002EFC01215E48FEF7B6FC05B000BD10B5D1
:102F300086B0044601218804FDF779FC01210820B0
:102F4000FDF768FC4FF48060ADF8140018208DF890
:102F5000170003208DF8160005A95248FDF79EF9C9
:102F60004FF40060ADF8140004208DF8170005A997
:102F70004C48FDF793F91CB94FF41650019004E04A
:102F8000012C02D14FF4E13001900020ADF808008F
:102F9000ADF80A00ADF80C00ADF810000C20ADF84B
:102FA0000E0001A94048FEF7EAFB012240F225513C
:102FB0003D48FEF77CFC01213B48FEF76CFC4FF4DA
:102FC000A060FDF79DF827208DF8000000208DF807
:102FD000010004208DF8020001208DF803006846EE
:102FE000FDF793F806B010BD10B5044621462C48F5
:102FF000FEF7BEFC00BF40212948FEF727FD01284F
:10300000F9D110BD70B504460D46002605E014F850
:10301000010BFFF7E9FF701C86B2AE42F7DB70BD13
:1030200070B50446204602F035FC86B2002505E066
:1030300014F8010BFFF7D8FF681C85B2B542F7DB27
:1030400070BD10B5044621461748FEF791FC00BF3D
:1030500040211548FEF7FAFC0128F9D110BD70B5E2
:1030600004460D46002605E014F8010BFFF7E9FFC2
:10307000701C86B2AE42F7DB70BD70B504462046C8
:1030800002F008FC86B2002505E014F8010BFFF7FA
:10309000D8FF681C85B2B542F7DB70BD000801405F
:1030A00000380140000C01400048004008B50720EE
:1030B000009002E00098401E009000980028F9D18E
:1030C00008BD10B54FF40070E54908604010086075
:1030D000FFF7ECFFE2480838006808B9012000E07B
:1030E000002000F4007008B1002010BD4FF4007003
:1030F000DB49091D0860FFF7D9FFD9480838006887
:1031000000F4007008B10020EFE74FF40070D449DC
:10311000091D0860FFF7CAFF0120E6E710B54FF46C
:103120008070CF49091D0860FFF7C0FF4FF40070A1
:10313000CB49091D0860FFF7B9FF4FF48070C849FB
:103140000860FFF7B3FF4FF40070C5490860FFF750
:10315000ADFF10BD10B54FF48070C149091D086066
:10316000FFF7A4FF4FF40070BD49091D0860FFF789
:103170009DFF4FF48070BA490860FFF797FF4FF446
:103180008070B749091D0860FFF790FF10BD10B5AA
:103190004FF48070B249091D0860FFF787FF4FF4B4
:1031A0000070AF490860FFF781FF4FF48070AC49B1
:1031B0000860FFF77BFF4FF48070A949091D086084
:1031C000FFF774FF10BD10B54FF48070A449091DBE
:1031D0000860FFF76BFF4FF40070A1490860FFF72C
:1031E00065FF4FF480709E490860FFF75FFF9C48C1
:1031F0000838006800F4007030B14FF480709849CE
:10320000091D0860002010BD4FF480709449091D0D
:1032100008600120F7E770B5044608251DE04FF46B
:1032200080708F49091D0860FFF740FF04F080009F
:1032300020B14FF400708A49086004E04FF4007038
:103240008749091D08606006040EFFF72FFF4FF441
:10325000807083490860FFF729FF281EA5F101014E
:10326000CDB2DCD14FF480707D49091D086070BD7E
:1032700070B508250024A8017949086016E06006A9
:10328000040E4FF480707649091D0860FFF70EFFA9
:103290004FF4807072490860FFF708FF70480838E3
:1032A000006800F4007008B144F00104281EA5F184
:1032B0000101CDB2E3D14FF480706949091D086066
:1032C000204670BD08B501210820FDF7A3FA4FF490
:1032D0004070ADF8000002208DF8020014208DF837
:1032E000030069465E481038FCF7D8FF08BD70B58A
:1032F00004460D461646FFF7E4FE08B9002070BDEF
:10330000002141EA4401C8B2FFF785FFFFF75BFFE8
:1033100018B9FFF703FF0020F1E72846FFF77BFF0E
:10332000FFF751FF3046FFF776FFFFF74CFFFFF73F
:10333000F5FE0120E3E72DE9F04105460E4617466C
:103340009846FFF7BEFE10B90020BDE8F0810021CD
:1033500041EA4501C8B2FFF75EFFFFF734FF18B935
:10336000FFF7DCFE0020F0E73046FFF754FFFFF7E1
:103370002AFF00240BE018F80400FFF74CFFFFF7CA
:1033800022FF18B9FFF7CAFE0020DEE7641CBC422A
:10339000F1DBFFF7C3FE0120D7E72DE9F041054639
:1033A0000F4614461E46FFF78CFE10B90020BDE8FC
:1033B000F081002141EA4501C8B2FFF72CFFFFF779
:1033C00002FF18B9FFF7AAFE0020F0E73846FFF722
:1033D00022FFFFF7F8FEFFF774FE012101EB450124
:1033E000C8B2FFF718FFFFF7EEFE0CE0FFF740FF53
:1033F0003070012C02D1FFF7CAFE01E0FFF7AAFEF0
:10340000761C601EC4B2002CF0D1FFF787FE0120AD
:10341000CDE72DE9F04104460D4616461F463B46D2
:10342000324629462046FFF786FF10B10020BDE84E
:10343000F0814FF0FF30FAE72DE9F04104460D46E8
:1034400016461F463B46324629462046FFF7A5FF53
:1034500010B10020BDE8F0814FF0FF30FAE7000026
:10346000100C014000B589B00121C802FDF7D2F966
:1034700001210420FDF7CEF94FF40060ADF81400EF
:1034800048208DF8170005A97748FCF707FF0420AE
:10349000ADF8140010208DF8170002208DF81600EA
:1034A00005A97148FCF7FAFE4FF6FF70ADF80C0065
:1034B0004720ADF808000020ADF80E00ADF80A0076
:1034C00002A96A48FDF7DEFA0C20ADF818000020CA
:1034D000ADF81A000120ADF81C000020ADF81E0068
:1034E000ADF8200006A96148FDF75FFD1B208DF8AF
:1034F000040002208DF8050000208DF80600012050
:103500008DF8070001A8FCF700FE012211215748A1
:10351000FDF72FFE01215548FDF710FE09B000BD53
:1035200010B504215048FCF766FF142000F0C8FBDA
:1035300004214D48FCF761FF4D48007800F0800001
:10354000E8B14B48007800F03F004A49086008465F
:103550000088000408600846006847490968084474
:103560004449086008460068AA21484342F21071A5
:1035700090FBF1F03F49086000203D49086010BD14
:1035800010B53B48007800F0800000284CD10121A4
:103590003648FEF79CF8D0B13548007800F040007E
:1035A000A8B13348007800F03F003F280AD13048E6
:1035B000006840F080002E4908604FF6FF702E49E9
:1035C000086004E02A480068401C2949086010216E
:1035D0002648FEF77CF838B32548007800F0400014
:1035E00078B12348006840F08000214908601F48F6
:1035F000FEF757F82049086000211C48FDF796FFA8
:1036000012E000201A4908601B4908600021174891
:10361000FEF728F81648006840F04000144908609A
:1036200002211248FDF782FF11211048FEF760F8D1
:1036300010BD10B54FF47A7000F04FFB4FF40061ED
:103640000948FCF7BEFE58B9322000F046FB4FF4A3
:1036500000610548FCF7B5FE10B901200749086074
:1036600010BD06480068704700080140002C01406A
:10367000F802002000030020FC02002004030020C8
:1036800008B501210420FDF7C5F801210820FDF748
:10369000C1F81820ADF8000010208DF803000320B9
:1036A0008DF802006946A648FCF7F8FD0320ADF846
:1036B00000006946A348FCF7F1FD1821A048FCF77B
:1036C0009AFE03219F48FCF796FE08BD08B501212C
:1036D0000220FDF7ACF801210420FDF79BF8012141
:1036E0000820FDF797F8C020ADF8000018208DF8ED
:1036F000030003208DF8020069469148FCF7CEFDD7
:1037000008BDF0B587B0002700240025002640F250
:10371000E730ADF814000320ADF810000020ADF83C
:103720001600ADF8120004A98748FDF7ABF9602038
:10373000ADF800000120ADF80200ADF806700020E1
:10374000ADF8080069468048FDF7D9F908217E48A0
:10375000FDF724FEADF8064069467B48FDF711FAF7
:1037600008217948FDF723FEADF8065069467648F2
:10377000FDF754FA08217448FDF726FEADF80660FF
:1037800069467148FDF795FA08216F48FDF725FE57
:1037900001216D48FDF7D2FD01216B48FDF7CEFCFC
:1037A00007B0F0BD10B5FFF76BFFFFF78FFFFFF716
:1037B000A8FF10BD00B589B001210846FDF737F814
:1037C00001210420FDF726F802A8FCF7F2FD0320F2
:1037D000ADF8080004208DF80B0002A95848FCF74A
:1037E0005DFD1C208DF8040000208DF805000320ED
:1037F0008DF8060001208DF8070001A8FCF785FC74
:103800004FF08040FDF76AF806A8FDF767FC00203E
:10381000ADF818004FF6FF70ADF81C000020ADF8B1
:103820001E00ADF81A0006A94FF08040FDF72AF9F6
:1038300000231A4603214FF08040FDF732FD03A814
:10384000FDF75FFC0620ADF8140003A94FF080409F
:10385000FDF7ABFB01218807FDF736FF012211467A
:103860009007FDF786FC01218807FDF767FC09B08A
:1038700000BD00B589B001210420FCF7D8FF01216B
:103880000820FCF7C7FF02A8FCF793FDC020ADF8A5
:10389000080004208DF80B0002A92A48FCF7FEFC62
:1038A0001E208DF8040000208DF8050002208DF800
:1038B000060001208DF8070001A8FCF726FC23482C
:1038C000FDF70CF806A8FDF709FC0020ADF818007C
:1038D0004FF6FF70ADF81C000020ADF81E00ADF8EB
:1038E0001A0006A91948FDF7CDF800231A4603214E
:1038F0001648FDF7D6FC03A8FDF703FC0620ADF83B
:10390000140003A91148FDF750FB01210F48FDF7F2
:10391000DBFE012211460D48FDF72BFC01210B486F
:10392000FDF70CFC09B000BD10B501218807FDF7BB
:10393000CBFE10BD10B501210448FDF7C5FE10BD3A
:1039400000080140000C0140000400400008004055
:1039500008B501210420FCF75DFF01210820FCF7D8
:1039600059FF48208DF803004FF40140ADF80000E6
:1039700069464148FCF792FC2820ADF800006946F2
:103980003E48FCF78BFC08BD10B5002408213B48DD
:10399000FCF717FD10B144F0020418E0202137486D
:1039A000FCF70FFD10B144F0010410E04FF40041AA
:1039B0003148FCF706FD10B144F0040407E04FF471
:1039C00080712D48FCF7FDFC08B144F00804204646
:1039D00010BD10B5002408212848FCF7F2FC08B1FE
:1039E00044F0020420212548FCF7EBFC08B144F028
:1039F00001044FF400412048FCF7E3FC08B144F017
:103A000004044FF480711C48FCF7DBFC08B144F05F
:103A10000804204610BD10B5002420211748FCF7EB
:103A2000D0FC012801D1601CC4B208211348FCF766
:103A3000C8FC012801D1601CC4B24FF400410E48FB
:103A4000FCF7BFFC012801D1601CC4B24FF48071A7
:103A50000948FCF7B6FC012801D1601CC4B2042C53
:103A600002D101200649087010BD0548007808B948
:103A7000012070470020FCE700080140000C0140D5
:103A80000803002000200DE0244931F8101000291F
:103A900006DD224931F81010491E204A22F8101084
:103AA000411CC8B20528EFDB704770B5FEF7C4FDB6
:103AB0001B4800684FF47A72B0FBF2F1B1F1807FDD
:103AC00001D301201DE021F07F40401E4FF0E02295
:103AD000506150170F22002807DA13071D0E114BF3
:103AE00000F00F04241F1D5503E013071C0E0E4B9E
:103AF0001C5400BF00204FF0E022906107201061AD
:103B0000002008B100BFFEE74FF0E020006940F060
:103B100001004FF0E021086170BD00007008002036
:103B20001400002018ED00E000E400E010B51F488C
:103B3000008800B110BD4FF47A701C4908801C4801
:103B40000088401C1A490880FFF796F91949088037
:103B50001948007808B100F09DF9FEF7F7FD00BFA5
:103B6000E8E7FEF72BFE01F0DFFC01F0E6F8FFF7D7
:103B70009CFFFFF77AFF10B101201049086001F0A7
:103B800039FD11E0FFF7D2FF0848808860B91420A2
:103B90000649888001F03EFDFFF7C2FCFFF761FD9A
:103BA00010B1032000F089FEECE70000700800204F
:103BB000E2070020E407002009030020140300208E
:103BC000704700BFFEE700BFFEE700BFFEE700BF93
:103BD000FEE7704770477047704710B5FFF752FF18
:103BE00031480078401C3049087030480078401C4B
:103BF0002E49087001F0A9FB2B480078052805DB49
:103C000000202949087001F0A0F92CE0264800782E
:103C1000012804D1FEF795FE01F02DFA23E0224899
:103C20000078022802D101F0D3FA1CE01E48007887
:103C3000032810D11E480078401C1D490870084612
:103C4000007805280FDB01F0ECFA00201849087015
:103C50001649087007E014480078042803D101F0E1
:103C60003FF900F0E1FF10BD10B540F225511148B9
:103C7000FDF702FFB8B110480078802802DB002071
:103C80000D4908700B48FDF777FEC1B20A4802786B
:103C90000078401C084B18700848815440F22551A8
:103CA0000448FDF713FF10BD0C0300200E03002095
:103CB0000D03002000480040F4020020F00700201F
:103CC000014605E0002001E0421CD0B20A28FBDBDF
:103CD0000A1EA1F10101F5D1704710B5044603E0B9
:103CE0004FF47A70FFF7ECFF201EA4F10104F7D126
:103CF00010BD704730B502460023002000BF04E02D
:103D000012F8014B60405C1CE3B28B42F8DB30BD23
:103D1000F0B505460E461446002731462846FFF703
:103D2000E9FF0746A74201D10120F0BD0020FCE7D2
:103D300030B502460020002305E012F8015B2C1884
:103D4000E0B25C1CE3B28B42F7DB30BD30B502461B
:103D50000B464FF6FF70002112E0555C68400024CE
:103D60000AE000F0010525B14AF2010585EA60008C
:103D700000E04010651CECB2082CF2DB4D1CE9B2EF
:103D80009942EADB30BD00002DE9F0478CB0FA49DA
:103D9000FA48006801F0A8FD824602F081F8044666
:103DA0000D46F549F648006801F09EFD824602F096
:103DB00077F806460F46F049F248006801F094FD96
:103DC000824602F06DF8804642460B46EEA104A8FA
:103DD000CDE90067CDE9024502F094FC04A8FFF7A5
:103DE0004CF90CB0BDE8F0872DE9F0478CB0824665
:103DF000BAF1000F1BD1E949886802F051F8044676
:103E00000D46E649486802F04BF806460F46E3497E
:103E1000086802F045F8804642460B46E0A104A837
:103E2000CDE90067CDE9024502F06CFC1DE0BAF176
:103E3000010F1AD1DF49886802F032F804460D46B6
:103E4000DC49486802F02CF806460F46D949086854
:103E500002F026F8804642460B46D7A104A8CDE9D9
:103E60000067CDE9024502F04DFC04A8FFF705F913
:103E70000CB0BDE8F08700B589B0D448D44BD54A22
:103E8000D5A1009001A802F03DFC01A8FFF7F5F8CC
:103E900009B000BD00B589B0D348008800EB8000B0
:103EA0004200D2480388D2A101A802F02BFC01A84D
:103EB000FFF7E3F809B000BD2DE9FC5F0646344684
:103EC000E0E12078232877D1CCA1601C01F0EAFC46
:103ED000009003F0EFFA074601F0C9FFC5B2002DCC
:103EE0006ADD642D68DA0A2D14DA6119081DC4A18F
:103EF00001F0D8FC009003F0DDFA074601F0B7FFAF
:103F000000F0FF094A462946E01CFFF701FF824600
:103F1000E41C13E06119481DB9A101F0C3FC009035
:103F200003F0C8FA074601F0A2FF00F0FF094A4675
:103F30002946201DFFF7ECFE8246241DBAF1000F32
:103F40003AD0B0480078012865D1AFA1204601F0F1
:103F50008FFC20B10021084600F007FA5BE0ABA11E
:103F6000204601F085FC40B3A4A1204601F09AFC54
:103F7000A2A1002001F096FC009003F09BFA0746F6
:103F800001F0D2FF8346A2A1002001F08BFC00903B
:103F900003F090FA074601F0C7FF01909D49019890
:103FA00001F0FAFC07469B49584601F0F5FC8046B3
:103FB000394600F0DAF92EE063E1FFE796A12046EA
:103FC00001F056FC38B38DA1204601F06BFC8BA1AB
:103FD000002001F067FC009003F06CFA074601F046
:103FE000A3FF83468AA1002001F05CFC009003F04F
:103FF00061FA074601F098FF01904FF08041584662
:1040000001F0FCFC07468549019801F0F7FC804669
:10401000394600F0AAF982A1204601F029FC18B126
:104020000120784908702CE17EA1204601F020FC97
:1040300018B103207349087023E17BA1204601F0E9
:1040400017FC38B104206F4908707449002000F053
:104050008CF916E175A1204601F00AFC18B1022086
:10406000684908700DE172A1204601F001FC70B3AF
:1040700062A1204601F016FC60A1002001F012FCB4
:10408000009003F017FA074601F04EFF434908601D
:104090005AA1002001F006FC009003F00BFA07463D
:1040A00001F042FF3D49486059A1002001F0FAFBB0
:1040B000009003F0FFF9074601F036FF37498860AA
:1040C000002001F058FA0020FFF78EFED9E0FFE74C
:1040D00058A1204601F0CCFB70B348A1204601F066
:1040E000E1FB46A1002001F0DDFB009003F0E2F9C6
:1040F000074601F019FF2F49086040A1002001F098
:10410000D1FB009003F0D6F9074601F00DFF2949D5
:1041100048603FA1002001F0C5FB009003F0CAF900
:10412000074601F001FF23498860012001F023FACE
:104130000120FFF759FEA4E03FA1204601F098FBC3
:1041400018B10020FFF750FE9BE03CA1204601F093
:104150008FFB18B10120FFF747FE92E038A12046FF
:1041600001F086FB30B1002001F020FA0020FFF7BB
:104170003BFE86E066E00000000034438003002040
:104180008403002088030020562C252E30662C2521
:104190002E30662C252E30660D0A000054030020B8
:1041A00041502C252E32662C252E32662C252E329F
:1041B000660D0A006003002053502C252E32662C19
:1041C000252E32662C252E32660D0A00007D000851
:1041D000FB7C0008F67C0008492C25732C25732CE9
:1041E00025730D0A00000000E4070020E20700200C
:1041F000522C25642C25640D0A0000002C000000C0
:104200003B000000E607002043530000434A000043
:104210002A00000000002041434D00000000A040A3
:10422000534E4B00535546005355410053495400DB
:1042300053415000535350004741500047535000E2
:104240005241000017A1204601F012FB30B10120BD
:1042500001F0ACF90120FFF7C7FD12E012A12046E2
:1042600001F006FB28B1012010490870FFF703FE9A
:1042700007E00FA1204601F0FBFA10B100200B4926
:104280000870641CA01B0B4909788842FFF619AE20
:104290000020084908708021074801F0DEFABDE8D7
:1042A000FC9F00005256000052420000090300200B
:1042B00052530000F4020020F007002010B5FFF771
:1042C00088FB0446FE480078844201D1012010BDDD
:1042D0000020FCE72DE9FC5F8146884614461D4618
:1042E0000C9E2146404601F03BFE17D2294630463F
:1042F00001F04CFB41460190204601F047FB009045
:10430000019901F07BFB82464146484601F03EFBA5
:104310008346514601F072FB074616E029463046B7
:1043200001F034FB83462146404601F02FFB5946FD
:10433000009001F063FB82464146484601F029FBAC
:104340005146019001F05AFB07463146384601F0CC
:1043500011FE01D2374605E02946384601F000FE3D
:1043600000D22F463846BDE8FC9F38B505460C46BE
:104370000021284601F0FEFD0AD2D2480023D24A8D
:10438000194600902846FFF7A5FFD04908600BE0CA
:10439000CC480023CE4A194600902846FFF79AFFE2
:1043A00080F00040C94908600021204601F0E2FD8C
:1043B0000AD2C8480023C44A194600902046FFF795
:1043C00089FFC54908600BE0C2480023C04A19466E
:1043D00000902046FFF77EFF80F00040BE49086055
:1043E00038BD10B5BD49BE48006801F0B9FD04D222
:1043F0000021BA48FFF7B9FF10E04FF07E51B848EE
:10440000006801F0B7FD05D200214FF07E50FFF7A4
:10441000ACFF03E000210846FFF7A7FF10BD10B571
:1044200000210846FFF7A1FF10BD10B5A849AC4810
:10443000006801F095FD04D2AA49AB48FFF795FF4B
:104440003EE0AA49A648006801F08AFD04D2A849C6
:104450000802FFF78AFF33E0A049A148006801F095
:104460007FFD04D2A3499D48FFF77FFF28E04FF06E
:104470007E519B48006801F07DFD05D29D494FF0BB
:104480007E50FFF772FF1BE096499548006801F0E7
:1044900071FD05D296494FF08040FFF766FF0FE0AF
:1044A00089498F48006801F065FD05D28D494FF0BC
:1044B0008140FFF75AFF03E08F490020FFF755FFC7
:1044C00010BD70B504468249204601F00DFA05463C
:1044D00083480168284601F04DFD04D28149824895
:1044E000FFF743FF57E08149204601F0FDF90546FB
:1044F0007B480168284601F03DFD04D27C49080252
:10450000FFF733FF47E07549204601F0EDF9054616
:1045100073480168284601F02DFD04D275496F48A3
:10452000FFF723FF37E04FF07E51204601F0DCF922
:1045300005466B480168284601F012FD05D26D4919
:104540004FF07E50FFF711FF25E06649204601F04D
:10455000CBF9054662480168284601F001FD05D205
:1045600063494FF08040FFF700FF14E056492046B2
:1045700001F0BAF905465A480168284601F0F0FCF6
:1045800005D258494FF08140FFF7EFFE03E05A494A
:104590000020FFF7EAFE70BD10B54D495048006895
:1045A00001F0DEFC04D255494F48FFF7DEFE3EE045
:1045B0004E494B48006801F0D3FC05D24A494FF000
:1045C0004040FFF7D2FE32E044494548006801F020
:1045D000C7FC04D245494148FFF7C7FE27E04FF02A
:1045E0007E513F48006801F0C5FC05D23F494FF0BD
:1045F0007E50FFF7BAFE1AE03A493948006801F0E8
:10460000B9FC04D23849C801FFF7AFFE0FE02E49CC
:104610003348006801F0AEFC05D238494FF08140C4
:10462000FFF7A3FE03E036490020FFF79EFE10BD12
:1046300010B504463348008833490968401AA0423F
:1046400002DCFFF7ECFE0BE030480068401C2F490D
:104650000860234800682E49086000202D49086042
:1046600010BD70B504462A480168204601F03CF9A7
:1046700005461B480168284601F07CFC4ED22548BF
:10468000006848B91A491D48FFF76FFE21480068C5
:10469000401C2049086008E015490020FFF765FE2E
:1046A0001C480068401C1B4908601A4800681A49E9
:1046B000096888423FDB0020164908603BE00000A3
:1046C000CC0300200000C8430000204170030020FC
:1046D000000020C100008C4248030020000080BF81
:1046E0008C0300200000A040000080C00000A0C09B
:1046F0000000C0400000E04000001041000040C049
:104700000000C0C0E2070020A8030020A40300208E
:10471000AC030020B0030020B403002000210846B1
:10472000FFF723FEFB480068401CFA490860FA487E
:104730000088FA49086070BD70B50446F848016801
:10474000204601F026F90546F6480168284601F0A2
:1047500007FC1FD2F448006848B9F449F448FFF751
:1047600004FEF1480068401CEF49086008E0EF498A
:104770000020FFF7FAFDEC480068401CEA49086099
:10478000E9480068EB490968884210DB0020E649E7
:1047900008600CE000210846FFF7E7FDDD480068EF
:1047A000401CDC490860DC480088DC49086070BDBA
:1047B00070B50446DA480168204601F095F80546D0
:1047C000D8480168284601F0D5FB04D20021DA4818
:1047D000FFF7CBFD12E0D2480168204601F084F8D3
:1047E0000546D0480168284601F0BAFB06D2D049F8
:1047F000D248FFF7BAFD0020D149086070BD70B5FE
:104800000446C7480168204601F0C3F80546C5487C
:104810000168284601F0A4FB04D20021C948FFF733
:10482000A4FD12E0BE480168204601F0B2F805463A
:10483000BC480168284601F09DFB06D2BC49BF4830
:10484000FFF793FD0020BE49086070BD70B50025DC
:104850000026B148008800280EDDFFF7BAF80446AC
:10486000B948007884420AD16420B8490860002120
:104870000846FFF77AFD70BDFFF786F8044604F09E
:10488000020008B1B24D10E004F0010008B1B14DD2
:104890000BE004F0080008B1AF4D06E004F004009E
:1048A00010B14FF0814500E000254FF080463146C1
:1048B0002846FFF75AFD00BFDDE770B50446022C1D
:1048C00067D194490968A1B9A4490968A44A126842
:1048D000881800EBD0714910A24A914209DA8D483C
:1048E0000068401C8B4908608B4800888B49086031
:1048F00070BD8848006810B9FFF797FD07E185484B
:104900000068012803D10220FFF792FEFFE08148F2
:104910000068022816D191490968914A12688818DE
:1049200000EBD0714910002902DAFFF735FEEEE006
:1049300078480068401C77490860774800887749C4
:104940000860D5E773480068032803D10220FFF709
:104950006FFEDCE06F480068042803D18248FFF74F
:1049600080FED4E06B480068052803D10220FFF7E1
:104970005FFECCE067480068062803D17A48FFF75D
:10498000DBFEC4E0634800680728B7D1FFF747FDA6
:10499000BDE0032CB2D175480068012815D16B48E1
:1049A000006808280EDB0020704908605A4800881B
:1049B0006F490860FFF715FD56480068401C5549CF
:1049C0000860A4E0FFF742FFA1E052480068032816
:1049D00002D1FFF706FD9AE04E480068022818D180
:1049E0005E4909685E4A1268881862490968A1F23E
:1049F000B45100EBD072B1EB620F02DAFFF715FD94
:104A000085E044480068401C42490860FFF7E9FC23
:104A10007DE040480068012879D14948006858B1D4
:104A200055480068012803D15448FFF7C1FE6EE0E5
:104A30005248FFF7E4FE6AE05148006801F0A4F92B
:104A40000546504901F08CFA33D84F490020FFF752
:104A50008CFC3448006832490860012038490860FD
:104A60004A48006878B944480068012804D1474999
:104A70000860414908604AE04FF0FF304349086050
:104A80003D49086043E041480068012806D1002004
:104A90003E490860401E3849086038E03B480068DD
:104AA000401C20BB002039490860012032490860C1
:104AB0002DE036480068D8B9FFF7B7FC16480088E3
:104AC0002B490968401A012821DBFFF7F7FB70B179
:104AD00010480068401C0F49086020490968204AB6
:104AE0001268881800EBD0714910224A11600EE05C
:104AF00026480068012803D12048FFF7E2FC06E0C1
:104B000022480068401C10B92148FFF7DAFC00BFBA
:104B1000EEE60000A4030020E2070020A803002026
:104B2000AC0300208C030020B00300200000C04034
:104B300000004040B40300200000A0C0000080BF7F
:104B4000C40300200000A040CC030020C8030020C4
:104B5000000020C1000080C000002041940300201C
:104B600098030020C9E1FFFF00000743B8030020BD
:104B7000D0030020A0030020BC0300200000B442AA
:104B8000000300200000A041000010C1C00300206D
:104B90000000B4C270B504460D46002C09DA0821A5
:104BA000FE48FBF728FC1021FC48FBF726FC64427A
:104BB00007E01021F948FBF71EFC0821F748FBF736
:104BC0001CFC002D09DA0121F548FBF714FC022139
:104BD000F348FBF712FC6D4207E00221F048FBF7B7
:104BE0000AFC0121EE48FBF708FCB5F57A7F01DBF2
:104BF00040F2E735B4F57A7F01DB40F2E734E9486B
:104C0000007840B10021E848FCF730FD0021E6487B
:104C1000FCF72EFD07E0A9B2E348FCF727FDA1B29F
:104C2000E148FCF725FD70BD70B5E0480168E0483B
:104C3000006800F0ABFE0446DE480168204600F044
:104C4000A5FEDD490860D9480168D948006800F030
:104C50009DFE0446D7480168204600F045FED7492E
:104C60000860D548006801F0B6F8002807DD00218B
:104C7000D148006800F038FECF4908600CE0CE480B
:104C8000006801F0A8F8002806DA0021CA48006888
:104C900000F07CFEC8490860C848006801F09BF835
:104CA000002807DD0021C548006800F01DFEC3494B
:104CB00008600CE0C148006801F08DF8002806DAB1
:104CC0000021BE48006800F061FEBC490860BA4897
:104CD000006801F080F8B0F57A7F02DBB848B64989
:104CE0000860B548006801F076F810F57A7F02DCBC
:104CF000B448B1490860B148006801F06CF8B0F5FB
:104D00007A7F02DBAE48AD490860AC48006801F02C
:104D100062F810F57A7F02DCAA48A8490860A74823
:104D2000006801F058F80446A348006801F053F801
:104D300005462146FFF72EFF70BD0020A2490880DE
:104D4000A2490880A2490860A2490860A2490860F7
:104D5000A2490860A2490860A2490860A249086007
:104D6000A2490860A2490860A2490860A2490860F7
:104D7000A2490860A24908608C4908608C49086013
:104D80008E4908608C4908608A4908609D4908601E
:104D90009D4908609D4908609D4908709D490870BB
:104DA0009D490870704770B504460D4600219B4828
:104DB000006801F0D5F834D11E2C0DDD1E2D0BDD61
:104DC00097498A48006801F0D5F805D29549874887
:104DD000006801F0C5F811D314F11E0F1DDA15F1AA
:104DE0001E0F1ADA8E498148006801F0C3F814D208
:104DF0008C497E48006801F0B3F80ED28A480088DA
:104E0000401C894908800846008832280CDD0020B3
:104E1000088001208549086006E00020824908805A
:104E200002E000208049088070BD70B57F480068AE
:104E300000B970BD7E496D48006801F09BF848D20A
:104E40007C496A48006801F08BF842D27A480088B1
:104E5000401C794908800846008832283EDB002043
:104E60000880764801686148006800F08FFD0646BA
:104E700001F016F80446724A724B01F025F820D270
:104E80006E4801685948006800F080FD064601F050
:104E900007F804466A4A6C4B01F02EF811D26B48B1
:104EA0000088401C694908800846008804280BDBFC
:104EB00000200880604908804B4908605B49086011
:104EC00002E0002061490880484800685B490860AA
:104ED00004E00020584908805C49088000BFA8E72A
:104EE00010B53948B0F900103848B0F90000FFF7A4
:104EF0005AFFFFF79AFF4D48006830B12948007803
:104F000040F002002749087005E02648007820F0AC
:104F100002002449087043493448006801F02AF827
:104F200005D33F493148006801F01AF806D21D4800
:104F3000007840F004001B49087005E0194800782B
:104F400020F004001749087010BD10B54FF08040E4
:104F5000FCF7ABFB00B21D4908803D48FCF7A5FB00
:104F6000404200B21849088000204FF080418884F8
:104F7000374924310880194800681449B1F90010F4
:104F8000084416490860144800680F49B1F9001038
:104F90000844114908602F4800685DE0000801409E
:104FA000000C014011030020000400401803002001
:104FB0002403002070030020280300202C0300207D
:104FC00000C0794400C079C43203002030030020BF
:104FD0003803002034030020400300203C0300205D
:104FE0004C030020440300205003002080030020D5
:104FF00084030020880300208C03002090030020FD
:105000007C0300206C030020740300207803002040
:105010000C0300200D0300200E0300204803002095
:105020000000F0C10000F041D40300209C030020E8
:105030000000A0C00000A040DE030020D803002034
:105040009A9999999999E93F9999E9BFDC030020C8
:105050000008004094030020CC49B1F90010401A28
:10506000CB490860CB480068CB49B1F90010401A21
:10507000C849086010BD2DE9F04F87B0C748B0F9A6
:10508000000000F08AFE06460022C54B00F00DFE2F
:10509000CDE90401C348B0F9000000F07EFE0646E9
:1050A0000022BF4B00F001FECDE90201DDE904233F
:1050B00002F040F982460022BB4B00F084FD04461A
:1050C000BA4ABB4B00F0F1FD804600F02DFFB94914
:1050D0000860B948006800F057FE0446B54801680A
:1050E000204600F056FCB3490860B448B0F900000F
:1050F00000F053FE06464FF06632B14B00F0D5FD8E
:10510000044600F095FE00B2AC4908800846B0F9AC
:10511000000000F039FEAB490860A648006800F0C6
:10512000BFFE0446A84AA94B00F04DFD82468B46BF
:10513000A448006800F0B4FEA34AA54BCDE90001E5
:1051400000F041FD06460F46A248006800F0A8FEA8
:10515000804632463B4600F08FFC04469E4A9F4BF9
:1051600000F031FD52465B46CDE9020100F084FCBF
:10517000CDE9040100F0D8FE964908609848B0F9DE
:10518000000000F00AFE4FF066328D4BCDE90201BF
:1051900000F08BFD934A944BCDE9040100F06CFCC8
:1051A0008246894A8A4B00F00EFD06460F468F481C
:1051B000006800F075FE804632463B4600F05CFC1D
:1051C000044600F0B1FE8949086007B0BDE8F08FE1
:1051D0002DE9F04186498868864900F00FFC0646B3
:1051E00078480168002000F0D1FB0746314600F006
:1051F000D3FB044677480168002000F0C7FB074650
:105200007B480168384600F0C7FB06467A4900F043
:10521000C3FB0546214600F067FB78490860BDE8FE
:10522000F0812DE9FE4F76490968764A12688818A0
:1052300000F0B3FD06460022734B00F0C4FC0446A8
:1052400000F072FE7149086000206E4908606C49E8
:1052500008606E48006800F023FE06464FF03332C7
:105260006B4B00F0B0FC04460D466A48006800F045
:1052700017FE06464FF06632674B00F0A4FC8046EE
:1052800022462B4600F0F8FB824600F04DFE5F49B7
:105290000860084600685F49086060480068009040
:1052A0005A480168009800F071FB00905C48016862
:1052B000009800F071FB02905949486800F0F0FD39
:1052C00082460022574B00F0F0FC06460F4600983D
:1052D00000F0E6FD804632463B4600F074FC044692
:1052E00000F022FE019050480199006800F0FCFA9D
:1052F0004D4908604D4801684B48006800F0F4FAD9
:10530000494908600846006800F065FD00B2B0F544
:105310002F7F02DD4648444908604348006800F09A
:105320005AFD00B210F5617F02DA42483E4908603A
:1053300041480068414908603B480168029800F014
:10534000D3FA3D490860BDE8FE8F2DE9F0413B48A6
:1053500001683948006800F019FB064638480078B3
:10536000401C00F011FD0746314600F015FB0546D4
:10537000344900F043FB044630480168204600F001
:10538000B3FA31490860BDE8F08100003003002025
:105390009403002098030020320300202E000020F8
:1053A0000000D0402C00002000806640EA2E4454CB
:1053B000FB21094088030020140300202A0000205C
:1053C00066663040840300207B14AE47E17A943F48
:1053D000E17A743F800300205C8FC2F5285CEF3FC8
:1053E0003000002014AE47E17A14EABF8C0300209D
:1053F00054030020000020410000A04024030020AE
:105400003C030020400300200000E03F4403002054
:105410003333D33F4C0300206666E63F4803002049
:105420006003002000002440500300206C03002093
:1054300000002F44000061C4200300201C03002052
:105440000E0300200000C841180300202DE9F041A0
:1054500006460D4617460024FCF799FD3520FDF75A
:1054600031F800BF05E05F48205C5F490855601CCB
:10547000C4B2802CF7DB002406E015F8010B3119CB
:10548000594A5054601CC4B2BC42F6DB5548FCF784
:10549000C3FD002407E0544A1159524AA018FCF7F2
:1054A0008BFE201DC4B2802CF5DB3520FDF70AF8F9
:1054B000FCF779FDBDE8F08110B50346002006E059
:1054C000484C1C44245C01F8014B441CE0B290425F
:1054D000F6DB10BD08B5012269463220FFF7ECFF6C
:1054E0009DF80000012805D10C2240493320FFF728
:1054F000E3FF04E00C223D490220FFF7DDFF01221B
:1055000069464820FFF7D8FF9DF80000012805D123
:105510000C2237494920FFF7CFFF04E00C22344921
:105520001220FFF7C9FF08BD08B502226946002016
:10553000FFF7C2FF9DF80000A52806D19DF80100E5
:105540005A2802D1FFF7C6FF14E0A5208DF800000D
:105550005A208DF80100022269460020FFF776FFED
:105560000C2222490220FFF771FF0C222049122051
:10557000FFF76CFF08BD38B504460120009054B910
:10558000012269463220FFF761FF0C2217493320C0
:10559000FFF75CFF09E0012269464820FFF756FF4C
:1055A0000C2213494920FFF751FF38BD38B5044696
:1055B0000020009054B9012269463220FFF746FFCF
:1055C0000C220A490220FFF777FF09E00122694611
:1055D0004820FFF73BFF0C2205491220FFF76CFF24
:1055E00038BD000000F000087A08002054030020B5
:1055F0006003002008B55448082380220021009051
:105600000846FDF7E1FA4FF47A70FEF766FBFDF706
:1056100049FA08BDF0B58BB0202103A800F01DF9B0
:105620004A480078401C4949087008460078062816
:1056300001DD002008704548007878B944480068CA
:1056400000F02EFC43A2CDE90001152103A801F0D2
:1056500045F803AA00210846FDF76BFA3B4800789D
:10566000012815D1FDF7FDFF38B1414841A21521B0
:10567000036803A801F032F805E045A345A215210F
:1056800003A801F02BF803AA01210020FDF751FA2D
:105690002E48007802280BD1454846A21521036800
:1056A00003A801F01BF803AA02210020FDF741FA2C
:1056B0002648007803280BD1454846A215210368E7
:1056C00003A801F00BF803AA03210020FDF731FA2B
:1056D0001E48007804280BD1454846A215210368CE
:1056E00003A800F0FBFF03AA04210020FDF721FA24
:1056F00016480078052814D14448008800F05EFB65
:1057000006460022424B00F0D0FA42A2CDE9000149
:10571000152103A800F0E2FF03AA05210020FDF7F0
:1057200008FA0A48007806280BD14148038841A2AC
:10573000152103A800F0D2FF03AA06210020FDF7DF
:10574000F8F90BB0F0BD0000E0030020E0070020F6
:105750008C03002059617720416E676C653A2020E8
:1057600025302E316620202020202020000000003F
:105770000003002044697374616E63653A2020253C
:105780006428636D292020202020202000000000B4
:105790007878000044697374616E63653A2020254F
:1057A0007328636D29202020202020200000000085
:1057B000940300204C656674526F756E64436E747A
:1057C0003A202025642020202020202020200000B6
:1057D000980300205269676874526F756E64436E57
:1057E000743A202564202020202020202020000042
:1057F000A40300206D79537465703A202020202086
:10580000256420202020202000000000E407002044
:1058100000005940426174746572793A2020202555
:10582000302E31662856292020202020200000001C
:10583000E207002052756E74696D653A2020256478
:10584000287329202020202020000000D2B201E06F
:1058500000F8012B491EFBD270470022F6E710B575
:1058600013460A4604461946FFF7F0FF204610BDCE
:1058700030B505462A460B4612F8010B13F8014BCA
:1058800008B1A042F8D01CB1002802D06D1CF1E78D
:10589000284630BD421C10F8011B0029FBD1801A9C
:1058A0007047000070B50F4D00B92868002412E061
:1058B0000A4602E09E4203D0521C1378002BF9D115
:1058C000DAB2224305D02BB124B1002100F8011B2C
:1058D00004E00446401C0678002EE9D128602046EA
:1058E00070BD0000E8070020F0B480EA0102D40F88
:1058F0004200B2EB410F02D20246084611464A006E
:1059000042D0C30DDDB2C1F3C752AD1A202D35DA36
:10591000C1F3160141F4000204B15242C5F1200660
:1059200002FA06F12A411044B3EBD05F23D0C4B190
:10593000012DA0EBC35009DCF0BC4FF0004202EA9D
:10594000C352DBB200F5000000F0EDBB400000F1F7
:10595000807000EBC350A0F1807040EAD170490024
:1059600009E0490841EAC071A0EBC35000F500000E
:10597000400800EBC350F0BC00F0CCBB61420122F8
:1059800002EB4101001BF6E7F0BC704781F00041DB
:10599000AAE780F00040A7E780EA010210B502F014
:1059A0000043400022D04A001FD0010E01EB1261DB
:1059B000C0F35600C2F3560240F4000042F4000265
:1059C000A0FB022000047F39140400D0401C50EAE0
:1059D000124001D44000491EC2B20C0604EBD010A4
:1059E000401C4008802A02D003E0002010BD20F0B7
:1059F0000100002900DA0020184310BD30B480EA0D
:105A0000010202F0004530F0004221F0004013D0C6
:105A100090B1C30DD40DC2F31601C0F31600E41A01
:105A200041F4000140F400027D34914201D3641C32
:105A300000E04900002C02DA30BC002070474FF42F
:105A400000000023914201D3891A034340084FEA22
:105A50004101F7D151B1914202D14FF0004105E02F
:105A600002D24FF0010101E06FF0010103EBC450DD
:105A7000284430BC00F04EBB2DE9FE4F804681EA41
:105A80000300C00F0C46009021F0004123F00045B8
:105A9000B8EB0200A94105D24046214690461C467B
:105AA0000B46024623F00040104347D0270DC7F3B2
:105AB0000A00C3F30A510290401A019040286BDAA1
:105AC000C3F3130040F4801B0098924620B10023DA
:105AD000D2EB030A63EB0B0B01985946C0F140026D
